:100000000C9437000C9413030C9413030C941303F7
:100010000C94B6020C9413030C9413030C94130366
:100020000C9413030C9413030C9413030C942102EB
:100030000C9413030C9413030C9413030C941303E8
:100040000C9413030C9413030C94FA010C941303F3
:100050000C9413030C9413030C9413030C941303C8
:100060000C9413030C94130301000110800011245D
:100070001FBECFEFD8E0DEBFCDBFE8E6F0E040E046
:1000800017C0B591A59135912591059107FD0CC03B
:1000900095918591EF01F92FE82F05900D92A21708
:1000A000B307D9F7FE0104C01D92A217B307E1F709
:1000B000ED36F40731F70E940E030C94FB02F8941E
:0200C000FFCF70
:1000C200FF920F931F93CF93DF93CDB7DEB727979E
:1000D2000FB6F894DEBF0FBECDBF80910E0188230C
:1000E20009F442C110920E0180910001813019F091
:1000F20010920F0139C100E011E0F801F18066E0D1
:10010200C8010E946502F801278130E0322F2227C0
:100112004681242B8217930719F010920F0124C1F4
:10012200E0E0F1E0828190E0982F88272381822B02
:10013200AC01648170E0762F66272581622B9B01DA
:10014200F6E0FF1237C00E949F028BB184608BB928
:1001520081E28A95F1F7000090E00CC08091C00026
:1001620085FFFCCFE92FF0E0E050FF4F80818093C4
:10017200C6009F5F963090F366E080E091E00E94B7
:1001820065022091C00025FFFCCF8093C6008091BC
:10019200C00085FFFCCF9093C6008091C00086FF0F
:1001A200FCCFE0ECF0E08081806480838BB18B7FB8
:1001B2008BB9D8C08DEF8F0D823008F04DC0809181
:1001C20000018983FA8282E08B834130510521F458
:1001D20080910A0190E011C04230510529F48091CA
:1001E20008019091090109C04330510521F4809121
:1001F2000C0190E002C080E090E09C838D8365E07A
:10020200CE0101960E9465028E839F838BB184602A
:100212008BB9E1E2EA95F1F7000090E00EC080911F
:10022200C00085FFFCCFE1E0F0E0EC0FFD1FE90F1D
:10023200F11D80818093C6009F5F973080F380918B
:10024200C00086FFFCCFE0ECF0E080818064808318
:100252008BB18B7F8BB986C0F5E0FF1245C0413070
:10026200510509F07FC021158FEF380721F481E095
:1002720080930C0104C0232B11F410920C018BB15A
:1002820084608BB9E1E2EA95F1F7000090E00CC0DE
:100292008091C00085FFFCCFE92FF0E0E050FF4FD6
:1002A20080818093C6009F5F963090F366E080E085
:1002B20091E00E9465022091C00025FFFCCF80934F
:1002C200C6008091C00085FFFCCF9093C60080914C
:1002D200C00086FFFCCFE0ECF0E080818064808388
:1002E2008BB18B7F8BB93EC0F1E0FF123BC0413036
:1002F2005105C1F580910001898381E08A838B8356
:1003020090910C01911101C080E08C8364E0CE01D8
:1003120001960E9465028D839E838BB184608BB9A6
:1003220081E28A95F1F7000090E00EC08091C00052
:1003320085FFFCCFE1E0F0E0EC0FFD1FE90FF11DBE
:1003420080818093C6009F5F963080F38091C000C9
:1003520086FFFCCFE0ECF0E08081806480838BB18B
:100362008B7F8BB910920F0127960FB6F894DEBFE0
:100372000FBECDBFDF91CF911F910F91FF900895D6
:100382000E9461000E94D6029093090180930801A5
:1003920080910D01882361F110920D0180910C0171
:1003A200882321F180910A0190910B01892BF1F0B0
:1003B20020910A0130910B01C901880F991F880F02
:1003C200991F280F391FADECBCEC0E94C70296950D
:1003D2008795969587959695879528E833E1A901A3
:1003E200481B590BCA010E94830208950E9406030A
:0203F20008956C
:1003F4001F920F920FB60F9211248F93EF93FF93D6
:1004040080910F01883098F4E0910F0181E08E0F04
:1004140080930F01F0E08091C600E050FF4F80838D
:1004240080910F01883018F081E080930E01FF91D4
:0E043400EF918F910F900FBE0F901F901895B3
:100442001F920F920FB60F9211242F933F934F9347
:100452005F936F937F938F939F93AF93BF93EF932A
:10046200FF930E94F002FF91EF91BF91AF919F9194
:100472008F917F916F915F914F913F912F910F904B
:080482000FBE0F901F901895AA
:10048A0084B1816084B98AB184608AB987B18B7F6B
:10049A0087B988B1846088B980E480937C0086E853
:1004AA0080937A00E8E6F0E0808182608083ECE65F
:1004BA00F0E080818460808378940E94E402089549
:1004CA00AC0130E08FEF9FEF16C0FA01E30FF11D88
:1004DA002081822728E00CC080FF07C09695879567
:1004EA0071E0872770EA972702C096958795215071
:0C04FA002111F2CF3F5F361740F3089548
:1005060010928000E1E8F0E0108296958795969526
:100516008795969587959093890080938800109289
:1005260085001092840080818A608083EFE6F0E087
:0805360080818260808308953A
:10053E008130910559F4693E83E0780710F068EE3A
:10054E0073E070930B0160930A010895039731F4E1
:0E055E0081E0672B09F480E080930C01089582
:10056C001F920F920FB60F9211248F93329903C0E2
:10057C0081E080930D018F910F900FBE0F901F9013
:02058C001895C0
:10058E00A29FB001B39FC001A39F700D811D1124C6
:0E059E00911DB29F700D811D1124911D0895B5
:1005AC00EAE7F0E080818064808380917A0086FDA8
:0C05BC00FCCF80917800909179000895A8
:1005C8001092C5008CE08093C40088E98093C10034
:0805D80086E08093C200089543
:1005E00085B1816085B981E28A95F1F7000085B116
:0605F0008E7F85B908951D
:1005F600EC010E9418030E941703CE010E94190302
:06060600CE010E94150365
:10060C0010928100EFE6F0E080818D7F8083089569
:0A061C000E9445020E94C101FDCFBB
:040626000C94000030
:04062A000E945F00CB
:02062E0008952D
:0206300008952B
:02063200089529
:00000001FF
