:100000000C9434000C9467000C9467000C94670007
:100010000C9467000C9467000C9467000C946700C4
:100020000C9467000C9467000C9467000C946700B4
:100030000C9467000C9467000C9467000C946700A4
:100040000C9467000C9467000C9467000C94670094
:100050000C9467000C9467000C9467000C94670084
:100060000C9467000C94670011241FBECFEFD8E0FA
:10007000DEBFCDBF0E9440000C945C00F894FFCF1F
:1000800084B1816084B985B1816085B92FEF89E63B
:1000900098E1215080409040E1F700C0000085B118
:1000A0008E7F85B92FEF89E698E1215080409040FE
:0800B000E1F700C00000E7CFFA
:1000B800EC010E946C000E946B00CE010E946D0052
:0600C800CE010E94690058
:0400CE000C9400008E
:0400D2000E943E004A
:0200D60008958B
:0200D800089589
:0200DA00089587
:00000001FF
